:100000000C9467000C948F000C948F000C948F005C
:100010000C948F000C948F000C948F000C948F0024
:100020000C948F000C948F000C948F000C948F0014
:100030000C948F000C948F000C948F000C948F0004
:100040000C94B2020C948F000C9480020C945A020F
:100050000C948F000C948F000C948F000C948F00E4
:100060000C948F000C948F005761726E696E673A22
:100070002049494320706F7274206D69736D6174FB
:100080006368210000000000240027002A0000000F
:100090000000250028002B0000000000230026009F
:1000A00029000404040404040404020202020202FB
:1000B000030303030303010204081020408001022C
:1000C00004081020010204081020FC022B0811244F
:1000D0001FBECFEFD8E0DEBFCDBF11E0A0E0B1E0A2
:1000E000E8E7F1E102C005900D92AC32B107D9F713
:1000F00022E0ACE2B1E001C01D92A630B207E1F708
:1001000010E0C6E6D0E004C02197FE010E94A408DA
:10011000C536D107C9F70E948D040C94AF080C9422
:100120000000282F30E0359527952A54310981E0C9
:100130002330310508F080E0089581E0089581E0E2
:100140000895CF92DF92EF92FF920F931F93CF9378
:10015000DF936C017A018B01C0E0D0E0CE15DF05A2
:1001600089F0D8016D918D01D601ED91FC9101903E
:10017000F081E02DC6010995892B11F47E0102C0A2
:100180002196ECCFC701DF91CF911F910F91FF9086
:10019000EF90DF90CF900895089580E090E008956B
:1001A000FC01538D448D252F30E0842F90E0821B7D
:1001B000930B541710F0CF96089501970895FC0102
:1001C000918D828D981761F0828DDF01A80FB11D8E
:1001D0005D968C91928D9F5F9F73928F90E00895B2
:1001E0008FEF9FEF0895FC01918D828D981731F06C
:1001F000828DE80FF11D858D90E008958FEF9FEFC0
:100200000895FC01918D228D892F90E0805C9F4F95
:10021000821B91098F739927089588E391E00E94CA
:10022000010121E0892B09F420E0822F0895FC01CF
:10023000848DDF01A80FB11DA35ABF4F2C91848D6F
:1002400090E001968F739927848FA689B7892C93A4
:10025000A089B1898C9180648C93938D848D98133F
:1002600006C00288F389E02D80818F7D8083089508
:10027000EF92FF920F931F93CF93DF93EC0181E0F6
:10028000888F9B8D8C8D981305C0E889F9898081B2
:1002900085FD24C0F62E0B8D10E00F5F1F4F0F73EE
:1002A0001127E02E8C8DE8120CC00FB607FCFACF98
:1002B000E889F989808185FFF5CFCE010E94170179
:1002C000F1CF8B8DFE01E80FF11DE35AFF4FF08255
:1002D0000B8FEA89FB898081806207C0EE89FF89E4
:1002E0006083E889F98980818064808381E090E07F
:1002F000DF91CF911F910F91FF90EF900895CF93D1
:10030000DF93EC01888D8823C9F0EA89FB8980811D
:1003100085FD05C0A889B9898C9186FD0FC00FB6EF
:1003200007FCF5CF808185FFF2CFA889B9898C9130
:1003300085FFEDCFCE010E941701E7CFDF91CF916E
:10034000089580E090E0892B29F00E940D01811131
:100350000C9400000895CF93DF9390E0FC01EA54E1
:10036000FF4F2491FC01EE55FF4F8491882361F1EA
:1003700090E0880F991FFC01EC57FF4FC591D49175
:10038000FC01E257FF4FA591B491611109C09FB7DD
:10039000F8948881209582238883EC912E230BC0CA
:1003A000623061F49FB7F8943881822F809583235F
:1003B0008883EC912E2B2C939FBF06C08FB7F894A7
:1003C000E8812E2B28838FBFDF91CF9108958A3447
:1003D00019F460932E0109C08B3419F460932D0138
:1003E00004C08C3411F460932C0180E008958A34A9
:1003F00019F480912E0108958B3419F480912D0108
:1004000008958C3419F480912C01089580E00895AA
:100410001F93CF93DF93182FEB010E94F7011A343B
:1004200071F4883019F48091000121C090E00597A3
:1004300084309105D8F4FC01E75FFE4F15C01B34F2
:1004400049F490E005978430910580F4FC01EB5F5E
:10045000FE4F0AC01C3451F490E00597843091059A
:1004600028F4FC01EF5FFE4F808101C08EEF88838E
:1004700080E0DF91CF911F910895CF93DF931F927A
:10048000CDB7DEB7682F8093000181E090E06983EB
:100490000E9439086981681739F081E090E00F9077
:1004A000DF91CF910C9441080F90DF91CF91089587
:1004B0000E94AA081F920F920FB60F9211242F9339
:1004C0003F934F935F936F937F938F939F93AF93DC
:1004D000BF93EF93FF9388E391E00E941701FF9190
:1004E000EF91BF91AF919F918F917F916F915F91AC
:1004F0004F913F912F910F900FBE0F901F90189525
:100500001F920F920FB60F9211242F938F939F93E8
:10051000EF93FF93E0914801F09149018081E091D0
:100520004E01F0914F0182FD12C0908180915101E6
:100530008F5F8F7320915201821751F0E09151012A
:10054000F0E0E85CFE4F958F8093510101C08081FF
:10055000FF91EF919F918F912F910F900FBE0F9070
:100560001F9018951F920F920FB60F9211242F9380
:100570003F938F939F93AF93BF938091340190915A
:100580003501A0913601B09137013091330123E05C
:10059000230F2D3720F40196A11DB11D05C026E8BB
:1005A000230F0296A11DB11D2093330180933401C6
:1005B00090933501A0933601B093370180912F01BC
:1005C00090913001A0913101B09132010196A11DAD
:1005D000B11D80932F0190933001A0933101B0930E
:1005E0003201BF91AF919F918F913F912F910F90C9
:1005F0000FBE0F901F901895CF92DF92EF92FF924F
:100600000F931F93CF93DF9310923B0110923A0107
:1006100088EE93E0A0E0B0E080933C0190933D0130
:10062000A0933E01B0933F0181E191E090933901A5
:100630008093380185EC90E09093450180934401CC
:1006400084EC90E0909347018093460180EC90E029
:10065000909349018093480181EC90E090934B0185
:1006600080934A0182EC90E090934D0180934C017D
:1006700086EC90E090934F0180934E0110925101CF
:100680001092520110925301109254011092D50110
:100690001092D6011092D70183E18093D80182E1B4
:1006A0008093D901E9ECF0E084918093DA01E49140
:1006B000E095E093DB01E8ECF0E094919093DC01AD
:1006C000E491E095E093DD01892B8093DE0105EB59
:1006D00010E0F8018491E82FF0E0EE0FFF1FE856DC
:1006E000FF4F859194919093E0018093DF01C4EBDB
:1006F000D0E0FE018491E82FF0E0EE0FFF1FE856F6
:10070000FF4F859194919093E2018093E10182E300
:1007100090E09093EC018093EB0160E083E10E9414
:10072000AB0160E083E10E94AB01F8018491E82F06
:10073000F0E0EE0FFF1FE257FF4F859194919093E9
:10074000E4018093E301F8010491E02FF0E0EE0F63
:10075000FF1FEC57FF4F259134913093E601209312
:10076000E501FE012491E22FF0E0EE0FFF1FE257BA
:10077000FF4F259134913093E8012093E701FE016A
:10078000C491EC2FF0E0EE0FFF1FEC57FF4F4591A7
:1007900054915093EA014093E90182179307F1F0D5
:1007A000C8E6D0E0FE016491611109C042E050E06A
:1007B00069E271E088E391E00E94A1000EC0E0913F
:1007C0003801F09139010190F081E02D88E391E04A
:1007D00009952196892B31F7E9CFFFCFF89410E0E6
:1007E000C091EB01D091EC01CC0FDD1F60E177E20D
:1007F000E0E8CE2EEEE3DE2EE12CF12C693EF3E0B4
:100800007F07E0F0153098F4E12FF0E0EE0FFF1FC6
:10081000E15EFE4F80819181009759F09C0140E09C
:1008200050E0C701B6010E946308C90102C080E020
:1008300090E01F5FBE010E944F08E0CF1093FE01C1
:10084000CB019695982F8827979587950497909335
:10085000F0018093EF0124E1269FC001279F900DB6
:10086000112404979093F2018093F1019B0143E0DE
:10087000220F331F4A95E1F7820F931F9093F401E3
:100880008093F301645071097093EE016093ED0160
:10089000E091E501F091E60190818091DB018923EF
:1008A00080838091D501882349F0E091E301F091A4
:1008B000E40190818091DA01892B8083E091E90144
:1008C000F091EA0190818091DD01892380838091FC
:1008D000D501882349F0E091E701F091E80190818A
:1008E0008091DC01892B80831092FD018091FE01B3
:1008F00088608093FE011092FF0110920002109216
:100900000102109202027894DF91CF911F910F9112
:10091000FF90EF90DF90CF900895CF93DF931F92D9
:10092000CDB7DEB7789484B5826084BD84B581602C
:1009300084BD85B5826085BD85B5816085BD8091AA
:100940006E00816080936E00109281008091810022
:10095000826080938100809181008160809381001A
:10096000809180008160809380008091B1008460DC
:100970008093B1008091B00081608093B00080913D
:100980007A00846080937A0080917A0082608093FC
:100990007A0080917A00816080937A0080917A0059
:1009A000806880937A001092C100E0914801F09134
:1009B000490182E08083E0914401F0914501108279
:1009C000E0914601F091470183E38083109250014A
:1009D000E0914C01F0914D0186E08083E0914A0165
:1009E000F0914B01808180618083E0914A01F09118
:1009F0004B01808188608083E0914A01F0914B0136
:100A0000808180688083E0914A01F0914B01808170
:100A10008F7D808382E090E00E94390881508E3F74
:100A200008F048C181E090E00E94390880930001FD
:100A30008FE60E943D02F894F8948091880090918E
:100A400089008093F90180918A0090918B008093B6
:100A5000FA0180916F008093FB0186B38093FC01C3
:100A6000809180008093F701809181008093F8014C
:100A7000109280008091FF0190E090938900809314
:100A800088008091000290E090938B0080938A0010
:100A90008091010280936F008091020286BB809159
:100AA000FD01809380008091D701882329F08091F7
:100AB000FE018093810002C0109281001092850097
:100AC000109284002091EF013091F0013093890061
:100AD00020938800B19A19828091F5018093F601E4
:100AE000E091DF01F091E00190818091DE01982397
:100AF0009093F5019093F601908198239093F501DE
:100B000030938900209388002FEF3091F5013093C6
:100B1000F601908198239093F5014091DA019413A6
:100B200003C0381709F4D6C0B19B02C0B19A215056
:100B30002111EBCF68C08091F3019091F401909363
:100B4000890080938800822FF7010995E091DF01E9
:100B5000F091E0019091DA01882309F422C18081AB
:100B6000892309F039C1E091E701F091E801908112
:100B70008091DD0189238083E091E901F091EA0110
:100B800090818091DC01892B8083E091DF01F091DD
:100B9000E0019091DE012091DA018091F5018093CE
:100BA000F601808189238093F501382F322309F4DF
:100BB0001AC1111197C18981082F069580FD1FC1A7
:100BC0004DE9E42E40E0F42E11E0D12C1092850086
:100BD000109284008091F1019091F201909389002C
:100BE00080938800E091DF01F091E0019091DA01BB
:100BF0008081892309F483C08081892309F47FC01F
:100C0000B19BF6CFB19AE091E501F091E6019081B8
:100C10008091DB01892380838091D501882349F06D
:100C2000E091E301F091E40190818091DA01892B58
:100C30008083E091E901F091EA0190818091DD01EA
:100C4000892380838091D501882349F0E091E701D1
:100C5000F091E80190818091DC01892B80831092D2
:100C600080008091F90190E0909389008093880042
:100C70008091FA0190E090938B0080938A0080919C
:100C8000FB0180936F008091FC0186BB8091F7018E
:100C9000809380008091F801809381007894809106
:100CA000C00087FF04C08091C6000E943D020E94E0
:100CB000A101C2CE8FE60E943D0282E090E00E9438
:100CC00039088B3A09F4B4CE6BEA82E090E00E94D6
:100CD0004108AECE10928500109284008091F101FF
:100CE0009091F201909389008093880081E9E82E29
:100CF00080E0F82EC12C10E0D12C00E067CFE0910D
:100D0000E901F091EA0190818091DD0189238083DE
:100D10008091D501882349F0E091E701F091E80145
:100D200090818091DC01892B80831092F501E09104
:100D3000DF01F091E0014091DE015091DA01709104
:100D4000DC0167E02091F5012093F6019081942366
:100D50009093F501822F80958523892381F0972335
:100D600021E030E011F420E030E08981282B298354
:100D7000662309F4E0CE220F29836150E3CF951357
:100D800003C0241709F49BC0941303C0251709F46A
:100D900096C0B19BD7CF36CF8081892329F0B199F6
:100DA00031CF80818923C1F7E091E901F091EA0117
:100DB00090818091DD01892380838091D5018823F2
:100DC00009F47DC0E091E701F091E8019081809104
:100DD000DC01892B808373C08081892309F4C3CE11
:100DE000B19BBDCE0FCF8093F60180818923809384
:100DF000F501822309F0DDCEB19BCFCE03CFBE013A
:100E00006F5F7F4F802F0E9408028111FCCE4981C5
:100E100010928500109284008091F1019091F2016E
:100E2000909389008093880030E85091F5015093A9
:100E3000F601E091DF01F091E00190812091DE0167
:100E400092239093F5018091DA0185239095982360
:100E500009F063C0B19BE9CFB19AE091DF01F09155
:100E6000E0019091DA018081892309F0E6C0E091E8
:100E7000E901F091EA0190818091DD01892380836D
:100E80008091D501882349F0E091E701F091E801D4
:100E900090818091DC01892B80831FEF802F0E943D
:100EA000F70161E0680F802F0E94E701112309F428
:100EB000A6CF1153123008F0A6CEDD24D3941092A1
:100EC0008500109284008091F1019091F20190933D
:100ED00089008093880091E9E92E90E0F92EC12CD9
:100EE00010E074CEC1100FC06981802F0E94E7010D
:100EF000F1E0DF1609F483CF3FE9E32E30E0F32E73
:100F0000CC24C39408C0802F0E94F70161E0680FD1
:100F1000802F0E94E70111E059CE8091DD01932FCF
:100F2000942381F0E091E901F091EA019081892315
:100F300080838091D5018823A9F0E091E701F091A9
:100F4000E8010BC0E091E701F091E801908189236D
:100F50008083E091E901F091EA0190818091DC01C8
:100F6000892B8083832F90E095958795382F892B47
:100F700009F05BCF8091F3019091F4019093890087
:100F800080938800E091DF01F091E0012091DE0183
:100F90009091DA010AC08093F601808182238093C8
:100FA000F501892399F4B19957CF8091F501809388
:100FB000F601808182238093F501382F392359F37C
:100FC00005C08081892329F0B19946CF808189238A
:100FD000C1F7E091E901F091EA0190818091DD0192
:100FE000892380838091D501882349F0E091E7012E
:100FF000F091E80190818091DC01892B8083E09160
:10100000DF01F091E0019091DE012091DA01809101
:10101000F5018093F601808189238093F501382FB3
:10102000322399F48093F601808189238093F5011E
:10103000822359F4B19BEBCF0FCF8081892309F430
:1010400016CFB19B10CFB19A12CF1091F5019091AC
:10105000DC01192323CFCF93DF93C5EDD1E060E00E
:101060008B810E94AB0160E08C81DF91CF910C9469
:10107000AB01F999FECF92BD81BDF89A992780B551
:101080000895262FF999FECF1FBA92BD81BD20BDCC
:101090000FB6F894FA9AF99A0FBE01960895AA1B12
:1010A000BB1B51E107C0AA1FBB1FA617B70710F053
:1010B000A61BB70B881F991F5A95A9F78095909585
:1010C000BC01CD010895052E97FB1EF400940E94EB
:1010D0007A0857FD07D00E94820807FC03D04EF41F
:1010E0000C947A0850954095309521953F4F4F4F7D
:1010F0005F4F089590958095709561957F4F8F4FC4
:101100009F4F0895A1E21A2EAA1BBB1BFD010DC023
:10111000AA1FBB1FEE1FFF1FA217B307E407F507A7
:1011200020F0A21BB30BE40BF50B661F771F881F83
:10113000991F1A9469F760957095809590959B0119
:10114000AC01BD01CF010895EE0FFF1F0590F49192
:10115000E02D099481E090E0F8940C94AF0810E041
:10116000C6E6D0E004C0FE010E94A4082196C7365E
:08117000D107C9F7F894FFCF85
:10117800C0444444444CFF304D0500006F0000005B
:10118800003801A100D0007F010101DF00F3000158
:0C1198000008004000000100040D0A00E7
:00000001FF
