:100000000C9467000C948F000C948F000C948F005C
:100010000C948F000C948F000C948F000C948F0024
:100020000C948F000C948F000C948F000C948F0014
:100030000C948F000C948F000C948F000C948F0004
:100040000C9499020C948F000C9467020C9441025A
:100050000C948F000C948F000C948F000C948F00E4
:100060000C948F000C948F005761726E696E673A22
:100070002049494320706F7274206D69736D6174FB
:100080006368210000000000240027002A0000000F
:100090000000250028002B0000000000230026009F
:1000A00029000404040404040404020202020202FB
:1000B000030303030303010204081020408001022C
:1000C00004081020010204081020E302280811246B
:1000D0001FBECFEFD8E0DEBFCDBF11E0A0E0B1E0A2
:1000E000E2E7F1E102C005900D92AC32B107D9F719
:1000F00022E0ACE2B1E001C01D92A830B207E1F706
:1001000010E0C6E6D0E004C02197FE010E94A108DD
:10011000C536D107C9F70E9474040C94AC080C943E
:100120000000282F30E0359527952A54310981E0C9
:100130002330310508F080E0089581E0089581E0E2
:100140000895CF92DF92EF92FF920F931F93CF9378
:10015000DF936C017A018B01C0E0D0E0CE15DF05A2
:1001600089F0D8016D918D01D601ED91FC9101903E
:10017000F081E02DC6010995892B11F47E0102C0A2
:100180002196ECCFC701DF91CF911F910F91FF9086
:10019000EF90DF90CF900895089580E090E008956B
:1001A000FC01538D448D252F30E0842F90E0821B7D
:1001B000930B541710F0CF96089501970895FC0102
:1001C000918D828D981761F0828DDF01A80FB11D8E
:1001D0005D968C91928D9F5F9F73928F90E00895B2
:1001E0008FEF9FEF0895FC01918D828D981731F06C
:1001F000828DE80FF11D858D90E008958FEF9FEFC0
:100200000895FC01918D228D892F90E0805C9F4F95
:10021000821B91098F73992708958AE391E00E94C8
:10022000010121E0892B09F420E0822F0895FC01CF
:10023000848DDF01A80FB11DA35ABF4F2C91848D6F
:1002400090E001968F739927848FA689B7892C93A4
:10025000A089B1898C9180648C93938D848D98133F
:1002600006C00288F389E02D80818F7D8083089508
:10027000EF92FF920F931F93CF93DF93EC0181E0F6
:10028000888F9B8D8C8D981305C0E889F9898081B2
:1002900085FD24C0F62E0B8D10E00F5F1F4F0F73EE
:1002A0001127E02E8C8DE8120CC00FB607FCFACF98
:1002B000E889F989808185FFF5CFCE010E94170179
:1002C000F1CF8B8DFE01E80FF11DE35AFF4FF08255
:1002D0000B8FEA89FB898081806207C0EE89FF89E4
:1002E0006083E889F98980818064808381E090E07F
:1002F000DF91CF911F910F91FF90EF900895CF93D1
:10030000DF93EC01888D8823C9F0EA89FB8980811D
:1003100085FD05C0A889B9898C9186FD0FC00FB6EF
:1003200007FCF5CF808185FFF2CFA889B9898C9130
:1003300085FFEDCFCE010E941701E7CFDF91CF916E
:10034000089580E090E0892B29F00E940D01811131
:100350000C9400000895CF93DF9390E0FC01EA54E1
:10036000FF4F2491FC01EE55FF4F8491882361F1EA
:1003700090E0880F991FFC01EC57FF4FC591D49175
:10038000FC01E257FF4FA591B491611109C09FB7DD
:10039000F8948881209582238883EC912E230BC0CA
:1003A000623061F49FB7F8943881822F809583235F
:1003B0008883EC912E2B2C939FBF06C08FB7F894A7
:1003C000E8812E2B28838FBFDF91CF9108958A3447
:1003D00019F460932E0109C08B3419F460932D0138
:1003E00004C08C3411F460932C0180E008958A34A9
:1003F00019F480912E0108958B3419F480912D0108
:1004000008958C3419F480912C01089580E00895AA
:100410001F93CF93DF93182FEB010E94F7011A343B
:1004200081F4883019F48091000123C090E09C0190
:100430002650310924303105D8F4FC01EC5FFE4F21
:1004400015C01B3449F490E005978430910580F481
:10045000FC01EB5FFE4F0AC01C3451F490E005979D
:100460008430910528F4FC01EF5FFE4F808101C0CC
:100470008FEF888380E0DF91CF911F9108950E94D4
:10048000A7081F920F920FB60F9211242F933F933C
:100490004F935F936F937F938F939F93AF93BF938C
:1004A000EF93FF938AE391E00E941701FF91EF9190
:1004B000BF91AF919F918F917F916F915F914F917C
:1004C0003F912F910F900FBE0F901F9018951F9284
:1004D0000F920FB60F9211242F938F939F93EF9348
:1004E000FF93E0914A01F0914B018081E09150012E
:1004F000F091510182FD12C09081809153018F5F74
:100500008F7320915401821751F0E0915301F0E074
:10051000E65CFE4F958F8093530101C08081FF916F
:10052000EF919F918F912F910F900FBE0F901F9081
:1005300018951F920F920FB60F9211242F933F938D
:100540008F939F93AF93BF93809134019091350126
:10055000A0913601B09137013091330123E0230F90
:100560002D3720F40196A11DB11D05C026E8230FEB
:100570000296A11DB11D2093330180933401909305
:100580003501A0933601B093370180912F019091EE
:100590003001A0913101B09132010196A11DB11D30
:1005A00080932F0190933001A0933101B0933201D9
:1005B000BF91AF919F918F913F912F910F900FBE5F
:1005C0000F901F901895CF92DF92EF92FF920F93AA
:1005D0001F93CF93DF9310923D0110923C0188EE60
:1005E00093E0A0E0B0E080933E0190933F01A093A0
:1005F0004001B093410181E191E090933B018093F0
:100600003A0185EC90E0909347018093460184EC99
:1006100090E0909349018093480180EC90E09093A2
:100620004B0180934A0181EC90E090934D018093BF
:100630004C0182EC90E090934F0180934E0186EC48
:1006400090E09093510180935001109253011092C9
:10065000540110925501109256011092D701109238
:10066000D8011092D90183E18093DA0182E180936D
:10067000DB01E9ECF0E084918093DC01E491E0950A
:10068000E093DD01E8ECF0E094919093DE01E491D9
:10069000E095E093DF01892B8093E00105EB10E00A
:1006A000F8018491E82FF0E0EE0FFF1FE856FF4FAE
:1006B000859194919093E2018093E101C4EBD0E0A5
:1006C000FE018491E82FF0E0EE0FFF1FE856FF4F88
:1006D000859194919093E4018093E30182E390E00B
:1006E0009093EE018093ED0160E083E10E94AB0105
:1006F00060E083E10E94AB01F8018491E82FF0E013
:10070000EE0FFF1FE257FF4F859194919093E60102
:100710008093E501F8010491E02FF0E0EE0FFF1F58
:10072000EC57FF4F259134913093E8012093E70176
:10073000FE012491E22FF0E0EE0FFF1FE257FF4F82
:10074000259134913093EA012093E901FE01C4918F
:10075000EC2FF0E0EE0FFF1FEC57FF4F4591549147
:100760005093EC014093EB0182179307F1F0C8E638
:10077000D0E0FE016491611109C042E050E069E2FD
:1007800071E08AE391E00E94A1000EC0E0913A017D
:10079000F0913B010190F081E02D8AE391E0099511
:1007A0002196892B31F7E9CFFFCFF89410E0C09163
:1007B000ED01D091EE01CC0FDD1F60E177E2E0E8C2
:1007C000CE2EEEE3DE2EE12CF12C693EF3E07F0726
:1007D000E0F0153098F4E12FF0E0EE0FFF1FE15E3E
:1007E000FE4F80819181009759F09C0140E050E0DC
:1007F000C701B6010E946008C90102C080E090E014
:100800001F5FBE010E944C08E0CF10930002CB0195
:100810009695982F88279795879504979093F2013E
:100820008093F10124E1269FC001279F900D1124A0
:1008300004979093F4018093F3019B0143E0220F0E
:10084000331F4A95E1F7820F931F9093F60180932F
:10085000F501645071097093F0016093EF01E0912C
:10086000E701F091E80190818091DD018923808387
:100870008091D701882349F0E091E501F091E601EC
:1008800090818091DC01892B8083E091EB01F091D4
:10089000EC0190818091DF01892380838091D701D1
:1008A000882349F0E091E901F091EA01908180917B
:1008B000DE01892B80831092FF0180910002886005
:1008C0008093000210920102109202021092030221
:1008D000109204027894DF91CF911F910F91FF90B5
:1008E000EF90DF90CF900895CF93DF931F92CDB715
:1008F000DEB7789484B5826084BD84B5816084BDA0
:1009000085B5826085BD85B5816085BD80916E00AD
:10091000816080936E0010928100809181008260DE
:10092000809381008091810081608093810080911B
:1009300080008160809380008091B100846080930A
:10094000B1008091B00081608093B00080917A0006
:10095000846080937A0080917A00826080937A002C
:1009600080917A00816080937A0080917A0080681B
:1009700080937A001092C100E0914A01F0914B01FE
:1009800082E08083E0914601F09147011082E0917E
:100990004801F091490183E3808310925201E09174
:1009A0004E01F0914F0186E08083E0914C01F0917F
:1009B0004D01808180618083E0914C01F0914D0177
:1009C000808188608083E0914C01F0914D018081AD
:1009D00080688083E0914C01F0914D0180818F7D92
:1009E000808382E090E00E94360881508E3F08F0BC
:1009F00053C181E090E00E94360880930001F89492
:100A0000F89480918800909189008093FB018091F7
:100A10008A0090918B008093FC0180916F008093FD
:100A2000FD0186B38093FE01809180008093F901DF
:100A3000809181008093FA011092800080910102E0
:100A400090E090938900809388008091020290E06A
:100A500090938B0080938A008091030280936F00B3
:100A60008091040286BB8091FF0180938000809179
:100A7000D901882329F0809100028093810002C06F
:100A80001092810010928500109284002091F10153
:100A90003091F2013093890020938800B19A198235
:100AA0008091F7018093F801E091E101F091E2017A
:100AB00090818091E00198239093F7019093F80141
:100AC000908198239093F7013093890020938800B8
:100AD0002FEF3091F7013093F80190819823909394
:100AE000F7014091DC01941303C0381709F4EFC0FB
:100AF000B19B02C0B19A21502111EBCF68C0809107
:100B0000F5019091F6019093890080938800822FDF
:100B1000F7010995E091E101F091E2019091DC018A
:100B2000882309F43BC18081892309F052C1E091F7
:100B3000E901F091EA0190818091DF0189238083AE
:100B4000E091EB01F091EC0190818091DE01892B25
:100B50008083E091E101F091E2019091E001209128
:100B6000DC018091F7018093F801808189238093D3
:100B7000F701382F322309F433C11111B0C1898133
:100B8000082F069580FD38C14DE9E42E40E0F42E93
:100B900011E0D12C10928500109284008091F30115
:100BA0009091F4019093890080938800E091E10195
:100BB000F091E2019091DC018081892309F49CC0CD
:100BC0008081892309F498C0B19BF6CFB19AE09156
:100BD000E701F091E80190818091DD018923808314
:100BE0008091D701882349F0E091E501F091E60179
:100BF00090818091DC01892B8083E091EB01F09161
:100C0000EC0190818091DF01892380838091D7015D
:100C1000882349F0E091E901F091EA019081809107
:100C2000DE01892B8083109280008091FB0190E08F
:100C300090938900809388008091FC0190E09093CC
:100C40008B0080938A008091FD0180936F008091DA
:100C5000FE0186BB8091F901809380008091FA01AA
:100C60008093810078948091380190913901843685
:100C7000910530F40196909339018093380109C0B1
:100C80001092390110923801809100018F5F80939A
:100C900000010E94A101B4CE8FE68093000181E0A3
:100CA00090E00E9436088F3629F06FE681E090E0F0
:100CB0000E943E0882E090E00E9436088B3A09F4D8
:100CC0009ECE6BEA82E090E00E943E0898CE1092A1
:100CD0008500109284008091F3019091F40190932B
:100CE00089008093880081E9E82E80E0F82EC12CED
:100CF00010E0D12C00E04ECFE091EB01F091EC013F
:100D000090818091DF01892380838091D70188239E
:100D100049F0E091E901F091EA0190818091DE01D2
:100D2000892B80831092F701E091E101F091E201BB
:100D30004091E0015091DC017091DE0167E020916B
:100D4000F7012093F801908194239093F701822F6B
:100D500080958523892381F0972321E030E011F4E9
:100D600020E030E08981282B2983662309F4C7CE4F
:100D7000220F29836150E3CF951303C0241709F490
:100D80009BC0941303C0251709F496C0B19BD7CF1D
:100D90001DCF8081892329F0B19918CF80818923C3
:100DA000C1F7E091EB01F091EC0190818091DF01BE
:100DB000892380838091D701882309F47DC0E09145
:100DC000E901F091EA0190818091DE01892B808315
:100DD00073C08081892309F4AACEB19BA4CEF6CE3C
:100DE0008093F801808189238093F701822309F0A1
:100DF000C4CEB19BB6CEEACEBE016F5F7F4F802FCF
:100E00000E9408028111E3CE498110928500109260
:100E100084008091F3019091F40190938900809374
:100E2000880030E85091F7015093F801E091E1011A
:100E3000F091E20190812091E00192239093F701DB
:100E40008091DC0185239095982309F063C0B19BC4
:100E5000E9CFB19AE091E101F091E2019091DC01DA
:100E60008081892309F0E6C0E091EB01F091EC016B
:100E700090818091DF01892380838091D70188232D
:100E800049F0E091E901F091EA0190818091DE0161
:100E9000892B80831FEF802F0E94F70161E0680F8C
:100EA000802F0E94E701112309F4A6CF11531230BD
:100EB00008F08DCEDD24D39410928500109284002A
:100EC0008091F3019091F4019093890080938800C0
:100ED00091E9E92E90E0F92EC12C10E05BCEC11013
:100EE0000FC06981802F0E94E701F1E0DF1609F44D
:100EF00083CF3FE9E32E30E0F32ECC24C39408C027
:100F0000802F0E94F70161E0680F802F0E94E701A7
:100F100011E040CE8091DF01932F942381F0E09186
:100F2000EB01F091EC019081892380838091D701BE
:100F30008823A9F0E091E901F091EA010BC0E0916A
:100F4000E901F091EA01908189238083E091EB012E
:100F5000F091EC0190818091DE01892B8083832FB9
:100F600090E095958795382F892B09F05BCF80917C
:100F7000F5019091F6019093890080938800E091AB
:100F8000E101F091E2012091E0019091DC010AC0C1
:100F90008093F801808182238093F701892399F45B
:100FA000B19957CF8091F7018093F8018081822316
:100FB0008093F701382F392359F305C080818923A5
:100FC00029F0B19946CF80818923C1F7E091EB01E7
:100FD000F091EC0190818091DF01892380838091E1
:100FE000D701882349F0E091E901F091EA0190816D
:100FF0008091DE01892B8083E091E101F091E20193
:101000009091E0012091DC018091F7018093F8013B
:10101000808189238093F701382F322399F48093BC
:10102000F801808189238093F701822359F4B19BD1
:10103000EBCF0FCF8081892309F416CFB19B10CF5E
:10104000B19A12CF1091F7019091DE01192323CFAD
:10105000CF93DF93C7EDD1E060E08B810E94AB01BD
:1010600060E08C81DF91CF910C94AB01F999FECFB8
:1010700092BD81BDF89A992780B50895262FF999D8
:10108000FECF1FBA92BD81BD20BD0FB6F894FA9A6B
:10109000F99A0FBE01960895AA1BBB1B51E107C028
:1010A000AA1FBB1FA617B70710F0A61BB70B881FF8
:1010B000991F5A95A9F780959095BC01CD01089587
:1010C000052E97FB1EF400940E94770857FD07D069
:1010D0000E947F0807FC03D04EF40C9477085095CB
:1010E0004095309521953F4F4F4F5F4F0895909514
:1010F0008095709561957F4F8F4F9F4F0895A1E226
:101100001A2EAA1BBB1BFD010DC0AA1FBB1FEE1F81
:10111000FF1FA217B307E407F50720F0A21BB30BCC
:10112000E40BF50B661F771F881F991F1A9469F748
:1011300060957095809590959B01AC01BD01CF01A4
:101140000895EE0FFF1F0590F491E02D099481E0C2
:1011500090E0F8940C94AC0810E0C6E6D0E004C02F
:10116000FE010E94A1082196C736D107C9F7F8945D
:02117000FFCFAF
:1011720042444444444CFF304D0500006F000000DF
:10118200003801A100D0007F010101DF00F300015E
:0C1192000008004000000100040D0A00ED
:00000001FF
